:020000040000FA
:100000000C9461000C947E000C947E000C947E0095
:100010000C947E000C947E000C947E000C947E0068
:100020000C947E000C947E000C947E000C947E0058
:100030000C947E000C947E000C947E000C947E0048
:100040000C9414010C947E000C947E000C947E00A1
:100050000C947E000C947E000C947E000C947E0028
:100060000C947E000C947E0000000000230026000B
:10007000290000000000240027002A0000000000E2
:10008000250028002B0004040404040404040202D4
:100090000202020203030303030301020408102007
:1000A0004080010204081020010204081020000012
:1000B0000008000201000003040700000000000027
:1000C000000011241FBECFEFD8E0DEBFCDBF11E08E
:1000D000A0E0B1E0E6E0F6E002C005900D92A630A7
:1000E000B107D9F721E0A6E0B1E001C01D92AB3124
:1000F000B207E1F70E945E010C9401030C9400002A
:10010000833081F028F4813099F08230A9F008958D
:100110008730A9F08830C9F08430B1F48091800034
:100120008F7D03C0809180008F7780938000089539
:1001300084B58F7784BD089584B58F7DFBCF809182
:10014000B0008F778093B00008958091B0008F7DCC
:10015000F9CF1F93CF93DF93282F30E0F901E255B9
:10016000FF4F8491F901E656FF4FD491F901EA5708
:10017000FF4FC491CC23A9F0162F81110E9480005B
:10018000EC2FF0E0EE0FFF1FE458FF4FA591B49164
:100190008FB7F894EC91111108C0D095DE23DC9351
:1001A0008FBFDF91CF911F910895DE2BF8CFCF93B2
:1001B000DF9390E0FC01E656FF4F24918A579F4F52
:1001C000FC0184918823D1F090E0880F991FFC01F5
:1001D000EE58FF4FA591B491FC01E458FF4FC59133
:1001E000D491623071F49FB7F8943C91822F80953E
:1001F00083238C93E8812E2B28839FBFDF91CF919F
:1002000008958FB7F894EC912E2B2C938FBFF6CFD7
:100210002FB7F8946091170170911801809119011E
:1002200090911A012FBF08951F920F920FB60F924F
:1002300011242F933F938F939F93AF93BF938091FC
:10024000170190911801A0911901B0911A013091F4
:10025000160123E0230F2D3758F50196A11DB11D7E
:10026000209316018093170190931801A093190110
:10027000B0931A018091120190911301A091140181
:10028000B09115010196A11DB11D809312019093AB
:100290001301A0931401B0931501BF91AF919F91E9
:1002A0008F913F912F910F900FBE0F901F90189537
:1002B00026E8230F0296A11DB11DD2CF789484B5F4
:1002C000826084BD84B5816084BD85B5826085BD52
:1002D00085B5816085BD80916E00816080936E00E0
:1002E00010928100809181008260809381008091D2
:1002F0008100816080938100809180008160809383
:1003000080008091B10084608093B1008091B00042
:1003100081608093B00080917A00846080937A003D
:1003200080917A00826080937A0080917A00816067
:1003300080937A0080917A00806880937A0010928E
:10034000C10061E08DE00E94D70061E08AE00E9478
:10035000D70061E08CE00E94D70061E08BE00E9452
:10036000D70061E089E00E94D70062E082E00E944D
:10037000D70030EB232E30E0332E4CE9442E40E002
:10038000542E03E010E054E0E52EF12CCC24C3946D
:10039000D12C72E0A72EB12C98E8692E90E0792E2E
:1003A00020E0822E20E0922EF1018491F201C4918E
:1003B000F301D491DD2309F4A8C081110E948000CB
:1003C000ED2FF0E0EE0FFF1FE859FF4FA591B4911C
:1003D0008C91C82391E080E009F490E0C92FD82FD8
:1003E00080911001909111018C179D0751F00E948E
:1003F000080160930C0170930D0180930E0190939E
:100400000F010E94080120910C0130910D014091D3
:100410000E0150910F01621B730B840B950B63331C
:1004200071058105910558F080910A0190910B01A9
:100430008C179D0721F0D0930B01C0930A01D09334
:100440001101C093100180910A0190910B01009756
:1004500009F05EC08091040190910501019721F49B
:100460001092050110920401809100019091010108
:100470008230910509F460C08330910509F489C088
:100480000197A9F561E08DE00E94A90060E08AE093
:100490000E94A90060E08CE00E94A90060E08BE06F
:1004A0000E94A90061E089E00E94A9000E94080161
:1004B00020910601309107014091080150910901F6
:1004C000621B730B840B950B61317742810591059B
:1004D00058F2B0920101A09200010E9408016093BD
:1004E00006017093070180930801909309018091A0
:1004F00000019091010106970CF4B6CF811491048C
:1005000009F452CF0E94000047CFD0E0C0E068CF8E
:100510008130910509F0A8CF2091040130910501A7
:10052000232B09F0A1CF9093050180930401109231
:1005300003011092020198CF60E08DE00E94A900B3
:1005400060E08AE00E94A90061E08CE00E94A900BE
:1005500060E08BE00E94A90060E089E00E94A900B1
:100560000E94080120910601309107014091080185
:1005700050910901621B730B840B950B6D3D754007
:100580008105910508F470CF1093010100930001DB
:10059000A4CF60E08DE00E94A90061E08AE00E94A3
:1005A000A90060E08CE00E94A90061E08BE00E945D
:1005B000A90060E089E00E94A9000E940801209142
:1005C0000601309107014091080150910901621B19
:1005D000730B840B950B61347F418105910528F0E5
:1005E000D0920101C092000178CF809102019091D8
:1005F0000301892B09F038CFF0920101E09200014C
:0C0600006CCFF894FFCF01000100010056
:107E0000112484B714BE81FFF0D085E080938100F7
:107E100082E08093C00088E18093C10086E0809377
:107E2000C20080E18093C4008EE0C9D0259A86E02C
:107E300020E33CEF91E0309385002093840096BBD3
:107E4000B09BFECF1D9AA8958150A9F7CC24DD24C4
:107E500088248394B5E0AB2EA1E19A2EF3E0BF2EE7
:107E6000A2D0813461F49FD0082FAFD0023811F036
:107E7000013811F484E001C083E08DD089C08234E0
:107E800011F484E103C0853419F485E0A6D080C0E4
:107E9000853579F488D0E82EFF2485D0082F10E0AE
:107EA000102F00270E291F29000F111F8ED06801E7
:107EB0006FC0863521F484E090D080E0DECF843638
:107EC00009F040C070D06FD0082F6DD080E0C81688
:107ED00080E7D80618F4F601B7BEE895C0E0D1E017
:107EE00062D089930C17E1F7F0E0CF16F0E7DF06D8
:107EF00018F0F601B7BEE89568D007B600FCFDCFD4
:107F0000A601A0E0B1E02C9130E011968C91119780
:107F100090E0982F8827822B932B1296FA010C0160
:107F200087BEE89511244E5F5F4FF1E0A038BF0790
:107F300051F7F601A7BEE89507B600FCFDCF97BE46
:107F4000E89526C08437B1F42ED02DD0F82E2BD052
:107F50003CD0F601EF2C8F010F5F1F4F84911BD097
:107F6000EA94F801C1F70894C11CD11CFA94CF0C13
:107F7000D11C0EC0853739F428D08EE10CD085E9AC
:107F80000AD08FE07ACF813511F488E018D01DD067
:107F900080E101D065CF982F8091C00085FFFCCF94
:107FA0009093C60008958091C00087FFFCCF809118
:107FB000C00084FD01C0A8958091C6000895E0E648
:107FC000F0E098E1908380830895EDDF803219F02E
:107FD00088E0F5DFFFCF84E1DECF1F93182FE3DFCA
:107FE0001150E9F7F2DF1F91089580E0E8DFEE27F6
:047FF000FF270994CA
:027FFE00040479
:00000001FF
